:040000006EEF00F0AF
:100008004782FACF07F0FBCF08F0E9CF09F0EACF33
:100018000AF0E1CF0BF0E2CF0CF0D9CF0DF0DACF38
:100028000EF0F3CF0FF0F4CF10F0F6CF11F0F7CFBA
:1000380012F0F8CF13F0F5CF14F09EAA2DD0AFCF61
:1000480045F00A0E4518D8B416D00D0E4518D8B488
:1000580012D0200E46600FD07F0E45601CD046504F
:10006800010D800EF324D96E000EF420DA6E45C01F
:10007800DFFF462A10D0800E016E000E026E600E61
:10008800036E000E046E46C005F01CEC0DF045EC46
:100098000DF0000E466E9E9A14C0F5FF13C0F8FFCF
:1000A80012C0F7FF11C0F6FF10C0F4FF0FC0F3FF36
:1000B8000EC0DAFF0DC0D9FF0CC0E2FF0BC0E1FF94
:1000C8000AC0EAFF09C0E9FF08C0FBFF07C0FAFF42
:0800D80047921100C9EF0CF082
:1010000000534E2C536D617274536561740D004E24
:101010006F20436F6E6E656374696F6E0053522C60
:1010200033363030343830300D00522C310D005111
:031030000D0000B0
:1010340032C036F0376A386A3134363601E33780E5
:1010440036503B6E35C036F0376A386A343436363B
:1010540001E3378036503A6E3B50D8B40BD03A5047
:101064003B5CD8B00ED03B5000083A24366E180EC4
:10107400366407D033C030F034C031F035C032F0BC
:1010840012003A50D8B40BD03B503A5CD8B00ED0D2
:101094003A5000083B24366E180E366407D030C030
:1010A40030F031C031F032C032F01200060E396E29
:1010B40032BE398E35BE398C318EFF0E3016FF0E9E
:1010C4003116000E3216348EFF0E3316FF0E341610
:1010D400000E35163A503B5CD8B01BD0D89033364E
:1010E400343635363A063B503A18D8B40DD0390662
:1010F40039C036F0070E3616D8B406D0EFD7D890DC
:101104003232313230323B2A3A503B18D8B41FD0F5
:10111400F6D73B503A5CD8B01AD0D8903036313636
:1011240032363B063B503A18D8B40DD0390639C094
:1011340036F0070E3616D8B406D0EFD7D89035322D
:10114400343233323A2A3A503B18D8A4F7D739AE5E
:101154000CD0FF0E301AFF0E311AFF0E321A010E98
:101164003026000E3122000E322239AC0CD0FF0E94
:10117400331AFF0E341AFF0E351A010E3326000EF1
:101184003422000E3522000E396E30503326315091
:1011940034223250352235AE0ED0FF0E331AFF0EF4
:1011A400341AFF0E351A010E3326000E3422000EB7
:1011B4003522010E396E33C015F034C016F035C037
:1011C40017F03BC018F039C019F069EC0BF015C0EA
:1011D40030F016C031F017C032F012003EC0A0F05B
:1011E4000001A16BA26B3D340001A03701E3A18192
:1011F4000001A0510001AA6F0001AA51D8A409D08E
:10120400000E3C6E000E3D6E000E3E6E000E3F6EF4
:101214001200170E0001A06F3CC0A1F03DC0A2F067
:101224003EC0A3F00001A0290001A46F05D0000175
:10123400D890A333A233A1330001A42FF8D700011F
:10124400A1510001A56F3D8EFF0E3C16FF0E3D1609
:10125400000E3E163C500001A66F3D500001A76FE2
:101264003E500001A86F0001A96B8E0E0001AA5F19
:101274000001AAAF19D00001AA51800A8F0FD8B07B
:1012840009D0000E3C6E000E3D6E000E3E6E000E48
:101294003F6E12000001D890A933A833A733A633B8
:1012A4000001AA3FF7D71AD0170E0001AA6511D082
:1012B400000E3C6E000E3D6E000E3E6E000E3F6E44
:1012C40012000001D890A637A737A837A937000124
:1012D400AA070001AA510001D8A4F3D70001A5511F
:1012E4000001D8B409D00001A91FA81FA71FA66D2B
:1012F400000EA723A823A923A6C03CF0A7C03DF055
:10130400A8C03EF0A9C03FF01200000E0001B76F64
:10131400000EB66F000E0001BB6F000EBA6FA40E74
:101324000001AD6FA30E0001AE6F420E0001AF6F5E
:10133400650E0001B06F220E0001B16FBD0E0001F9
:10134400B26F000E0001B36F000E0001B46F000E07
:101354000001B56F000E0001B96F000EB86FC280B6
:10136400C250C30B0C09C26EC282C2B2FED7C29075
:10137400C3CFB6F00001B76BC4CFBAF00001BB6BAA
:101384000001BA510001BB6FBA6B0001B6510001F4
:10139400BA111D6E0001B7510001BB111E6EE8ECBD
:1013A4000CF01DC0B3F01EC0B4F01FC0B5F0ADC04A
:1013B40033F0AEC034F0AFC035F0B3C024F0B4C0E5
:1013C40025F0B5C026F0B0C021F0B1C022F0B2C003
:1013D40023F006EC0AF021C030F022C031F023C023
:1013E40032F01AEC08F030C03CF031C03DF032C0AD
:1013F4003EF0F0EC08F03CC0B8F03DC0B9F0B8C025
:10140400ABF0B9C0ACF0120023C027F0286A296AF7
:101414002234273601E3288027502A6E2A50D8A484
:1014240007D0000E216E000E226E000E236E1200F5
:1014340026C027F0286A296A2534273601E3288044
:1014440027502F6E2F50D8A407D0000E216E000E07
:10145400226E000E236E12002F507B0F2A2623C00B
:101464002FF026502F1A800E2F16228E258EFF0E57
:101474002416FF0E2516000E2616000E2B6E000EE7
:101484002C6E000E2D6E070E2E6E21A006D0245059
:101494002B2625502C2226502D22D890233222325E
:1014A4002132D8902436253626362E2EEED7090E34
:1014B4002E6E21A006D024502B2625502C222650F7
:1014C4002D22D890233222322132D8902D322C3240
:1014D4002B322E2EEED72BC015F02CC016F02DC0BB
:1014E40017F02AC018F02FC019F069EC0BF015C0E2
:1014F40021F016C022F017C023F01200000E0001E4
:10150400A46F000EA36F000E0001A86F000EA76F5A
:10151400000E0001A66F000EA56F000E0001A06F63
:10152400000E0001A16F000E0001A26FC280C25024
:10153400C30B2409C26EC282C2B2FED7C290C3CF0B
:10154400A3F00001A46BC4CFA7F00001A86B0001B5
:10155400A7510001A86FA76B0001A3510001A711B7
:101564000001A56F0001A4510001A8110001A66F9C
:10157400330E246E530E256E400E266EA5C01DF04C
:10158400A6C01EF0E8EC0CF01DC021F01EC022F035
:101594001FC023F006EC0AF021C030F022C031F065
:1015A40023C032F0000E336E800E346E440E356E5E
:1015B400F6EC0AF030C0A0F031C0A1F032C0A2F0C5
:1015C400A0C015F0A1C016F0A2C017F0660E186EE8
:1015D400660E196E3F0E1A6E09EC0CF0D8A002D0FC
:1015E400010E1200000E120032C036F0376A386A5B
:1015F4003134363601E3378036503D6E3D50D8A441
:1016040007D0000E306E000E316E000E326E1200E6
:1016140035C036F0376A386A3434363601E33780F9
:1016240036503E6E3E50D8A407D0000E306E000EE9
:10163400316E000E326E1200000E3A6E000E3B6EDA
:10164400000E3C6E3E50890F3D5E32C03EF0355078
:101654003E1A800E3E16318EFF0E3016FF0E3116E6
:10166400000E3216348EFF0E3316FF0E3416000EA3
:101674003516180E396ED8903A363B363C36335010
:10168400305C3450315835503258D8A007D03350DC
:10169400305E3450315A3550325A3A80D890303610
:1016A40031363236392EE7D73AC015F03BC016F042
:1016B4003CC017F03DC018F03EC019F069EC0BF0C7
:1016C40015C030F016C031F017C032F012001850B7
:1016D400D8B405D0155016101710D8A40CD0000E8D
:1016E400156E000E166E000E176E1200182AD89092
:1016F400173216321532000E15141A6E000E161417
:101704001B6EFE0E17141C6E1A501B101C10D8B43E
:101714000CD0ECD7182A010E1526000E1622000E46
:101724001722D890173216321532000E15141A6E7D
:10173400000E16141B6EFF0E17141C6E1A501B108D
:101744001C10D8B406D0E6D71806D890153616362D
:10175400173616BE03D0020E1860F6D718A0169ED0
:10176400D8901832185017121950D8A4178E15C0D3
:1017740015F016C016F017C017F0120033EC0DF078
:10178400E4EC0DF0D5EC0DF081EC0DF095EC0DF0E2
:10179400DFEC0DF0C3EC0DF081EC0CF0000E000159
:1017A400C06F000E0001C16F000E0001BF6F000E7C
:1017B400BE6F000E0001C26F000E0001C36F010E68
:1017C4008CEC0DF0C9EC0DF00001C06FE7EC0DF0EE
:1017D4000001C16FAEEC0DF0BCC0BEF0BDC0BFF0E7
:1017E400BEC015F0BFC016F004EC0DF00001C26FCE
:1017F400C1C015F0C2C016F00001C05157EC0DF085
:101804000001C36F0001C351A6EC0CF0D8D717AE8A
:1018140016D015C01BF016C01CF017C01DF01B1EFF
:101824001C1E1D1E1B2A000E1C221D22000E1B2422
:10183400156E000E1C20166E800E1D20176E1AAE3B
:1018440016D018C01BF019C01CF01AC01DF01B1EC6
:101854001C1E1D1E1B2A000E1C221D22000E1B24F2
:10186400186E000E1C20196E800E1D201A6E000EBC
:10187400151A000E161A800E171A000E181A000EEA
:10188400191A800E1A1A1850155C195016581A5045
:101894001758D8B002D0D8901200D880120018D0AF
:1018A40073EC0DF0ADA2FED715C0F6FF16C0F7FF1E
:1018B400000EF86E0F0EF76403D00800F55005D043
:1018C400F6CFE9FFF7CFEAFFEF50AE6E154A162ABE
:1018D40015C0F6FF16C0F7FF000EF86E0F0EF76482
:1018E40003D00800F55005D0F6CFE9FFF7CFEAFFA3
:1018F400EF500009D8A4D4D7ADB21200FDD733EC11
:101904000DF08A9465EC0DF0898865EC0DF0010EFC
:10191400156E100E166E51EC0CF065EC0DF033ECF8
:101924000DF01D0E156E100E166E51EC0CF065ECDC
:101934000DF033EC0DF09EEC0DF0898865EC0DF0A4
:101944008A8465EC0DF01200176E17C08CFF20EE30
:1019540040F010EE18F0040EDBCFE3FFE806FCE2E3
:101964008CA002D0310E1C6E8CA202D0310E1B6EE4
:101974008CA402D0310E1A6E8CA602D0310E196ED0
:10198400180E156E000E166E51EC0CF0120000EEDF
:1019940060F0400EEE6AE806FDE1466A456ADA0E3A
:1019A400F66E1B0EF76E000EF86E00EE40F010EEB1
:1019B40005F00900F5CFEEFFE550E150FAE147905C
:1019C4004792000EF86E0001C0EF0BF0000E206E7F
:1019D4001EAE06D01D6C1E1ED8B01E2A010E206E2F
:1019E4001DC015F01EC016F0176A8E0E186E20C0AA
:1019F40019F069EC0BF015C01DF016C01EF017C0ED
:101A04001FF01200000E176E16BE08D0165004E127
:101A14004B0E155CD8A002D0010E176E16BE08D06E
:101A2400165004E15A0E155CD8A002D0020E176EAF
:101A340017501200000E066E0FD001C0D9FF02C06D
:101A4400DAFF03C0E1FF04C0E2FFDFCFE7FF014A92
:101A5400022A034A042A062A0550065CD8B012005A
:101A6400ECD7000E156E1F0E156401D01200155030
:101A7400010D800EF324D96E000EF420DA6E000EF0
:101A8400DF6E152AF0D7000E016E1F0E016401D01F
:101A940012000150010D800EF324D96E000EF420C3
:101AA400DA6E000EDF6E012AF0D7176E155015247A
:101AB400156E1644E846FC0B166E165015101710DA
:101AC400186E18501200D550F80B0409D56E0B0E81
:101AD400D76EDD0ED66ED58EF2A4FED7D59EF294C7
:101AE4001200D550F80B0109D56E3C0ED76EB10E1D
:101AF400D66ED58EF2A4FED7D59EF2941200C0986D
:101B0400C18EC150C70B1009C16EC150F80B040936
:101B1400C16E1200156E03D065EC0DF0150615505C
:101B2400D8B41200F9D7B5EC0DF0BCEC0DF0CFEC45
:101B34000DF0EAEC0DF012002A0E156E100E166E62
:101B440051EC0CF065EC0DF01200949C9298929A72
:101B54009394000E956E120087EC09F0ABC0BCF0B4
:101B6400ACC0BDF01200AD9EAD9CAD8AAD98AD96F3
:101B7400AD841200AC8EAC9CAC8AAC88AC96C586A5
:101B84001200D59ED59CD59AD598D596120087A4D7
:101B940002D0010E1200000E12007E9E7E9A7E98E4
:101BA4007E867E921200DAEC0DF0A7EC0DF01200A6
:101BB400998497889286948E1200F28ED08E9D8A94
:101BC4009F8A1200FC0ED36E120080EC0AF0120001
:0B1BD400100EB06E12005330303030A5
:020000040001F9
:06FFF80080F4C0FFF8FFD9
:00000001FF
